{
  "_format": "hh-sol-artifact-1",
  "contractName": "VotingSystem",
  "sourceName": "contracts/VotingSystem.sol",
  "abi": [
    {
      "inputs": [],
      "stateMutability": "nonpayable",
      "type": "constructor"
    },
    {
      "anonymous": false,
      "inputs": [
        {
          "indexed": true,
          "internalType": "uint256",
          "name": "candidateId",
          "type": "uint256"
        },
        {
          "indexed": false,
          "internalType": "string",
          "name": "name",
          "type": "string"
        }
      ],
      "name": "CandidateAdded",
      "type": "event"
    },
    {
      "anonymous": false,
      "inputs": [
        {
          "indexed": true,
          "internalType": "uint256",
          "name": "candidateId",
          "type": "uint256"
        }
      ],
      "name": "CandidateDeleted",
      "type": "event"
    },
    {
      "anonymous": false,
      "inputs": [
        {
          "indexed": true,
          "internalType": "uint256",
          "name": "candidateId",
          "type": "uint256"
        },
        {
          "indexed": false,
          "internalType": "string",
          "name": "name",
          "type": "string"
        }
      ],
      "name": "CandidateUpdated",
      "type": "event"
    },
    {
      "anonymous": false,
      "inputs": [
        {
          "indexed": true,
          "internalType": "address",
          "name": "voter",
          "type": "address"
        },
        {
          "indexed": true,
          "internalType": "uint256",
          "name": "candidateId",
          "type": "uint256"
        }
      ],
      "name": "VoteCast",
      "type": "event"
    },
    {
      "anonymous": false,
      "inputs": [
        {
          "indexed": true,
          "internalType": "address",
          "name": "voter",
          "type": "address"
        }
      ],
      "name": "VoterDeleted",
      "type": "event"
    },
    {
      "anonymous": false,
      "inputs": [
        {
          "indexed": true,
          "internalType": "address",
          "name": "voter",
          "type": "address"
        }
      ],
      "name": "VoterRegistered",
      "type": "event"
    },
    {
      "anonymous": false,
      "inputs": [
        {
          "indexed": false,
          "internalType": "bool",
          "name": "status",
          "type": "bool"
        }
      ],
      "name": "VotingStatusChanged",
      "type": "event"
    },
    {
      "inputs": [
        {
          "internalType": "string",
          "name": "_name",
          "type": "string"
        },
        {
          "internalType": "string",
          "name": "_description",
          "type": "string"
        }
      ],
      "name": "addCandidate",
      "outputs": [],
      "stateMutability": "nonpayable",
      "type": "function"
    },
    {
      "inputs": [
        {
          "internalType": "uint256",
          "name": "",
          "type": "uint256"
        }
      ],
      "name": "candidates",
      "outputs": [
        {
          "internalType": "uint256",
          "name": "id",
          "type": "uint256"
        },
        {
          "internalType": "string",
          "name": "name",
          "type": "string"
        },
        {
          "internalType": "string",
          "name": "description",
          "type": "string"
        },
        {
          "internalType": "uint256",
          "name": "voteCount",
          "type": "uint256"
        },
        {
          "internalType": "bool",
          "name": "isActive",
          "type": "bool"
        }
      ],
      "stateMutability": "view",
      "type": "function"
    },
    {
      "inputs": [],
      "name": "candidatesCount",
      "outputs": [
        {
          "internalType": "uint256",
          "name": "",
          "type": "uint256"
        }
      ],
      "stateMutability": "view",
      "type": "function"
    },
    {
      "inputs": [
        {
          "internalType": "uint256",
          "name": "_candidateId",
          "type": "uint256"
        }
      ],
      "name": "deleteCandidate",
      "outputs": [],
      "stateMutability": "nonpayable",
      "type": "function"
    },
    {
      "inputs": [
        {
          "internalType": "address",
          "name": "_voter",
          "type": "address"
        }
      ],
      "name": "deleteVoter",
      "outputs": [],
      "stateMutability": "nonpayable",
      "type": "function"
    },
    {
      "inputs": [],
      "name": "getActiveCandidates",
      "outputs": [
        {
          "components": [
            {
              "internalType": "uint256",
              "name": "id",
              "type": "uint256"
            },
            {
              "internalType": "string",
              "name": "name",
              "type": "string"
            },
            {
              "internalType": "string",
              "name": "description",
              "type": "string"
            },
            {
              "internalType": "uint256",
              "name": "voteCount",
              "type": "uint256"
            },
            {
              "internalType": "bool",
              "name": "isActive",
              "type": "bool"
            }
          ],
          "internalType": "struct VotingSystem.Candidate[]",
          "name": "",
          "type": "tuple[]"
        }
      ],
      "stateMutability": "view",
      "type": "function"
    },
    {
      "inputs": [],
      "name": "getAllCandidates",
      "outputs": [
        {
          "components": [
            {
              "internalType": "uint256",
              "name": "id",
              "type": "uint256"
            },
            {
              "internalType": "string",
              "name": "name",
              "type": "string"
            },
            {
              "internalType": "string",
              "name": "description",
              "type": "string"
            },
            {
              "internalType": "uint256",
              "name": "voteCount",
              "type": "uint256"
            },
            {
              "internalType": "bool",
              "name": "isActive",
              "type": "bool"
            }
          ],
          "internalType": "struct VotingSystem.Candidate[]",
          "name": "",
          "type": "tuple[]"
        }
      ],
      "stateMutability": "view",
      "type": "function"
    },
    {
      "inputs": [
        {
          "internalType": "uint256",
          "name": "_candidateId",
          "type": "uint256"
        }
      ],
      "name": "getCandidate",
      "outputs": [
        {
          "internalType": "uint256",
          "name": "id",
          "type": "uint256"
        },
        {
          "internalType": "string",
          "name": "name",
          "type": "string"
        },
        {
          "internalType": "string",
          "name": "description",
          "type": "string"
        },
        {
          "internalType": "uint256",
          "name": "voteCount",
          "type": "uint256"
        },
        {
          "internalType": "bool",
          "name": "isActive",
          "type": "bool"
        }
      ],
      "stateMutability": "view",
      "type": "function"
    },
    {
      "inputs": [
        {
          "internalType": "address",
          "name": "_voter",
          "type": "address"
        }
      ],
      "name": "getVoter",
      "outputs": [
        {
          "internalType": "bool",
          "name": "isRegistered",
          "type": "bool"
        },
        {
          "internalType": "bool",
          "name": "hasVoted",
          "type": "bool"
        },
        {
          "internalType": "uint256",
          "name": "votedCandidateId",
          "type": "uint256"
        },
        {
          "internalType": "bool",
          "name": "isActive",
          "type": "bool"
        }
      ],
      "stateMutability": "view",
      "type": "function"
    },
    {
      "inputs": [],
      "name": "getWinner",
      "outputs": [
        {
          "internalType": "uint256",
          "name": "winnerId",
          "type": "uint256"
        },
        {
          "internalType": "string",
          "name": "winnerName",
          "type": "string"
        },
        {
          "internalType": "uint256",
          "name": "winnerVoteCount",
          "type": "uint256"
        }
      ],
      "stateMutability": "view",
      "type": "function"
    },
    {
      "inputs": [],
      "name": "owner",
      "outputs": [
        {
          "internalType": "address",
          "name": "",
          "type": "address"
        }
      ],
      "stateMutability": "view",
      "type": "function"
    },
    {
      "inputs": [
        {
          "internalType": "address",
          "name": "_voter",
          "type": "address"
        }
      ],
      "name": "registerVoter",
      "outputs": [],
      "stateMutability": "nonpayable",
      "type": "function"
    },
    {
      "inputs": [],
      "name": "startVoting",
      "outputs": [],
      "stateMutability": "nonpayable",
      "type": "function"
    },
    {
      "inputs": [],
      "name": "stopVoting",
      "outputs": [],
      "stateMutability": "nonpayable",
      "type": "function"
    },
    {
      "inputs": [],
      "name": "totalVotes",
      "outputs": [
        {
          "internalType": "uint256",
          "name": "",
          "type": "uint256"
        }
      ],
      "stateMutability": "view",
      "type": "function"
    },
    {
      "inputs": [
        {
          "internalType": "uint256",
          "name": "_candidateId",
          "type": "uint256"
        },
        {
          "internalType": "string",
          "name": "_name",
          "type": "string"
        },
        {
          "internalType": "string",
          "name": "_description",
          "type": "string"
        }
      ],
      "name": "updateCandidate",
      "outputs": [],
      "stateMutability": "nonpayable",
      "type": "function"
    },
    {
      "inputs": [
        {
          "internalType": "uint256",
          "name": "_candidateId",
          "type": "uint256"
        }
      ],
      "name": "vote",
      "outputs": [],
      "stateMutability": "nonpayable",
      "type": "function"
    },
    {
      "inputs": [
        {
          "internalType": "address",
          "name": "",
          "type": "address"
        }
      ],
      "name": "voters",
      "outputs": [
        {
          "internalType": "bool",
          "name": "isRegistered",
          "type": "bool"
        },
        {
          "internalType": "bool",
          "name": "hasVoted",
          "type": "bool"
        },
        {
          "internalType": "uint256",
          "name": "votedCandidateId",
          "type": "uint256"
        },
        {
          "internalType": "bool",
          "name": "isActive",
          "type": "bool"
        }
      ],
      "stateMutability": "view",
      "type": "function"
    },
    {
      "inputs": [],
      "name": "votingActive",
      "outputs": [
        {
          "internalType": "bool",
          "name": "",
          "type": "bool"
        }
      ],
      "stateMutability": "view",
      "type": "function"
    }
  ],
  "bytecode": "0x6080604052348015600f57600080fd5b50336000806101000a81548173ffffffffffffffffffffffffffffffffffffffff021916908373ffffffffffffffffffffffffffffffffffffffff1602179055506000600560006101000a81548160ff021916908315150217905550612f6c8061007a6000396000f3fe608060405234801561001057600080fd5b50600436106101215760003560e01c806335b8e820116100ad5780638e7ea5b2116100715780638e7ea5b2146102d8578063a3ec138d146102f8578063c082af751461032b578063d4f50f9814610347578063fab2f86b1461037a57610121565b806335b8e8201461023057806338db6dd314610264578063408e27271461028057806388e1c7391461029e5780638da5cb5b146102ba57610121565b806326541b56116100f457806326541b56146101865780632cdfa5a2146101a25780632d35a8a2146101c05780632e6997fe146101de5780633477ee2e146101fc57610121565b80630121b93f146101265780630d15fd77146101425780631e620cd4146101605780631ec6b60a1461017c575b600080fd5b610140600480360381019061013b9190611e71565b610384565b005b61014a610762565b6040516101579190611ead565b60405180910390f35b61017a60048036038101906101759190611e71565b610768565b005b610184610909565b005b6101a0600480360381019061019b919061200e565b6109ec565b005b6101aa610b75565b6040516101b7919061226e565b60405180910390f35b6101c8610e21565b6040516101d59190611ead565b60405180910390f35b6101e6610e27565b6040516101f3919061226e565b60405180910390f35b61021660048036038101906102119190611e71565b611049565b6040516102279594939291906122e9565b60405180910390f35b61024a60048036038101906102459190611e71565b61119c565b60405161025b9594939291906122e9565b60405180910390f35b61027e600480360381019061027991906123a8565b611397565b005b6102886115d2565b60405161029591906123d5565b60405180910390f35b6102b860048036038101906102b391906123a8565b6115e5565b005b6102c2611832565b6040516102cf91906123ff565b60405180910390f35b6102e0611856565b6040516102ef9392919061241a565b60405180910390f35b610312600480360381019061030d91906123a8565b611a22565b6040516103229493929190612458565b60405180910390f35b6103456004803603810190610340919061249d565b611a79565b005b610361600480360381019061035c91906123a8565b611c40565b6040516103719493929190612458565b60405180910390f35b610382611d13565b005b600560009054906101000a900460ff166103d3576040517f08c379a00000000000000000000000000000000000000000000000000000000081526004016103ca90612574565b60405180910390fd5b600260003373ffffffffffffffffffffffffffffffffffffffff1673ffffffffffffffffffffffffffffffffffffffff16815260200190815260200160002060000160009054906101000a900460ff16610462576040517f08c379a0000000000000000000000000000000000000000000000000000000008152600401610459906125e0565b60405180910390fd5b600260003373ffffffffffffffffffffffffffffffffffffffff1673ffffffffffffffffffffffffffffffffffffffff16815260200190815260200160002060020160009054906101000a900460ff166104f1576040517f08c379a00000000000000000000000000000000000000000000000000000000081526004016104e890612672565b60405180910390fd5b600260003373ffffffffffffffffffffffffffffffffffffffff1673ffffffffffffffffffffffffffffffffffffffff16815260200190815260200160002060000160019054906101000a900460ff1615610581576040517f08c379a0000000000000000000000000000000000000000000000000000000008152600401610578906126de565b60405180910390fd5b60008111801561059357506003548111155b6105d2576040517f08c379a00000000000000000000000000000000000000000000000000000000081526004016105c99061274a565b60405180910390fd5b6001600082815260200190815260200160002060040160009054906101000a900460ff16610635576040517f08c379a000000000000000000000000000000000000000000000000000000000815260040161062c906127b6565b60405180910390fd5b6001600260003373ffffffffffffffffffffffffffffffffffffffff1673ffffffffffffffffffffffffffffffffffffffff16815260200190815260200160002060000160016101000a81548160ff02191690831515021790555080600260003373ffffffffffffffffffffffffffffffffffffffff1673ffffffffffffffffffffffffffffffffffffffff168152602001908152602001600020600101819055506001600082815260200190815260200160002060030160008154809291906106fe90612805565b91905055506004600081548092919061071690612805565b9190505550803373ffffffffffffffffffffffffffffffffffffffff167fa36cc2bebb74db33e9f88110a07ef56e1b31b24b4c4f51b54b1664266e29f45b60405160405180910390a350565b60045481565b60008054906101000a900473ffffffffffffffffffffffffffffffffffffffff1673ffffffffffffffffffffffffffffffffffffffff163373ffffffffffffffffffffffffffffffffffffffff16146107f6576040517f08c379a00000000000000000000000000000000000000000000000000000000081526004016107ed906128bf565b60405180910390fd5b60008111801561080857506003548111155b610847576040517f08c379a000000000000000000000000000000000000000000000000000000000815260040161083e9061274a565b60405180910390fd5b6001600082815260200190815260200160002060040160009054906101000a900460ff166108aa576040517f08c379a00000000000000000000000000000000000000000000000000000000081526004016108a19061292b565b60405180910390fd5b60006001600083815260200190815260200160002060040160006101000a81548160ff021916908315150217905550807f5768df5843e58ec5b2fc92eb6ef81241e9ec50a0b93fd074dec58b39efc4172060405160405180910390a250565b60008054906101000a900473ffffffffffffffffffffffffffffffffffffffff1673ffffffffffffffffffffffffffffffffffffffff163373ffffffffffffffffffffffffffffffffffffffff1614610997576040517f08c379a000000000000000000000000000000000000000000000000000000000815260040161098e906128bf565b60405180910390fd5b6001600560006101000a81548160ff0219169083151502179055507f9069a1a16ace751e8690f383e12f87b01e8488ba387e626810bd113fef0417f960016040516109e291906123d5565b60405180910390a1565b60008054906101000a900473ffffffffffffffffffffffffffffffffffffffff1673ffffffffffffffffffffffffffffffffffffffff163373ffffffffffffffffffffffffffffffffffffffff1614610a7a576040517f08c379a0000000000000000000000000000000000000000000000000000000008152600401610a71906128bf565b60405180910390fd5b60036000815480929190610a8d90612805565b91905055506040518060a0016040528060035481526020018381526020018281526020016000815260200160011515815250600160006003548152602001908152602001600020600082015181600001556020820151816001019081610af39190612b57565b506040820151816002019081610b099190612b57565b506060820151816003015560808201518160040160006101000a81548160ff0219169083151502179055509050506003547fe83b2a43e7e82d975c8a0a6d2f045153c869e111136a34d1889ab7b598e396a383604051610b699190612c29565b60405180910390a25050565b6060600080600190505b6003548111610bd3576001600082815260200190815260200160002060040160009054906101000a900460ff1615610bc0578180610bbc90612805565b9250505b8080610bcb90612805565b915050610b7f565b5060008167ffffffffffffffff811115610bf057610bef611ee3565b5b604051908082528060200260200182016040528015610c2957816020015b610c16611df6565b815260200190600190039081610c0e5790505b509050600080600190505b6003548111610e17576001600082815260200190815260200160002060040160009054906101000a900460ff1615610e0457600160008281526020019081526020016000206040518060a001604052908160008201548152602001600182018054610c9e9061297a565b80601f0160208091040260200160405190810160405280929190818152602001828054610cca9061297a565b8015610d175780601f10610cec57610100808354040283529160200191610d17565b820191906000526020600020905b815481529060010190602001808311610cfa57829003601f168201915b50505050508152602001600282018054610d309061297a565b80601f0160208091040260200160405190810160405280929190818152602001828054610d5c9061297a565b8015610da95780601f10610d7e57610100808354040283529160200191610da9565b820191906000526020600020905b815481529060010190602001808311610d8c57829003601f168201915b50505050508152602001600382015481526020016004820160009054906101000a900460ff161515151581525050838381518110610dea57610de9612c4b565b5b60200260200101819052508180610e0090612805565b9250505b8080610e0f90612805565b915050610c34565b5081935050505090565b60035481565b6060600060035467ffffffffffffffff811115610e4757610e46611ee3565b5b604051908082528060200260200182016040528015610e8057816020015b610e6d611df6565b815260200190600190039081610e655790505b5090506000600190505b600354811161104157600160008281526020019081526020016000206040518060a001604052908160008201548152602001600182018054610ecb9061297a565b80601f0160208091040260200160405190810160405280929190818152602001828054610ef79061297a565b8015610f445780601f10610f1957610100808354040283529160200191610f44565b820191906000526020600020905b815481529060010190602001808311610f2757829003601f168201915b50505050508152602001600282018054610f5d9061297a565b80601f0160208091040260200160405190810160405280929190818152602001828054610f899061297a565b8015610fd65780601f10610fab57610100808354040283529160200191610fd6565b820191906000526020600020905b815481529060010190602001808311610fb957829003601f168201915b50505050508152602001600382015481526020016004820160009054906101000a900460ff161515151581525050826001836110129190612c7a565b8151811061102357611022612c4b565b5b6020026020010181905250808061103990612805565b915050610e8a565b508091505090565b60016020528060005260406000206000915090508060000154908060010180546110729061297a565b80601f016020809104026020016040519081016040528092919081815260200182805461109e9061297a565b80156110eb5780601f106110c0576101008083540402835291602001916110eb565b820191906000526020600020905b8154815290600101906020018083116110ce57829003601f168201915b5050505050908060020180546111009061297a565b80601f016020809104026020016040519081016040528092919081815260200182805461112c9061297a565b80156111795780601f1061114e57610100808354040283529160200191611179565b820191906000526020600020905b81548152906001019060200180831161115c57829003601f168201915b5050505050908060030154908060040160009054906101000a900460ff16905085565b60006060806000806000861180156111b657506003548611155b6111f5576040517f08c379a00000000000000000000000000000000000000000000000000000000081526004016111ec9061274a565b60405180910390fd5b6000600160008881526020019081526020016000206040518060a00160405290816000820154815260200160018201805461122f9061297a565b80601f016020809104026020016040519081016040528092919081815260200182805461125b9061297a565b80156112a85780601f1061127d576101008083540402835291602001916112a8565b820191906000526020600020905b81548152906001019060200180831161128b57829003601f168201915b505050505081526020016002820180546112c19061297a565b80601f01602080910402602001604051908101604052809291908181526020018280546112ed9061297a565b801561133a5780601f1061130f5761010080835404028352916020019161133a565b820191906000526020600020905b81548152906001019060200180831161131d57829003601f168201915b50505050508152602001600382015481526020016004820160009054906101000a900460ff161515151581525050905080600001518160200151826040015183606001518460800151955095509550955095505091939590929450565b60008054906101000a900473ffffffffffffffffffffffffffffffffffffffff1673ffffffffffffffffffffffffffffffffffffffff163373ffffffffffffffffffffffffffffffffffffffff1614611425576040517f08c379a000000000000000000000000000000000000000000000000000000000815260040161141c906128bf565b60405180910390fd5b600260008273ffffffffffffffffffffffffffffffffffffffff1673ffffffffffffffffffffffffffffffffffffffff16815260200190815260200160002060000160009054906101000a900460ff16156114b5576040517f08c379a00000000000000000000000000000000000000000000000000000000081526004016114ac90612cfa565b60405180910390fd5b60405180608001604052806001151581526020016000151581526020016000815260200160011515815250600260008373ffffffffffffffffffffffffffffffffffffffff1673ffffffffffffffffffffffffffffffffffffffff16815260200190815260200160002060008201518160000160006101000a81548160ff02191690831515021790555060208201518160000160016101000a81548160ff0219169083151502179055506040820151816001015560608201518160020160006101000a81548160ff0219169083151502179055509050508073ffffffffffffffffffffffffffffffffffffffff167fb6be2187d059cc2a55fe29e0e503b566e1e0f8c8780096e185429350acffd3dd60405160405180910390a250565b600560009054906101000a900460ff1681565b60008054906101000a900473ffffffffffffffffffffffffffffffffffffffff1673ffffffffffffffffffffffffffffffffffffffff163373ffffffffffffffffffffffffffffffffffffffff1614611673576040517f08c379a000000000000000000000000000000000000000000000000000000000815260040161166a906128bf565b60405180910390fd5b600260008273ffffffffffffffffffffffffffffffffffffffff1673ffffffffffffffffffffffffffffffffffffffff16815260200190815260200160002060000160009054906101000a900460ff16611702576040517f08c379a00000000000000000000000000000000000000000000000000000000081526004016116f990612d66565b60405180910390fd5b600260008273ffffffffffffffffffffffffffffffffffffffff1673ffffffffffffffffffffffffffffffffffffffff16815260200190815260200160002060020160009054906101000a900460ff16611791576040517f08c379a000000000000000000000000000000000000000000000000000000000815260040161178890612dd2565b60405180910390fd5b6000600260008373ffffffffffffffffffffffffffffffffffffffff1673ffffffffffffffffffffffffffffffffffffffff16815260200190815260200160002060020160006101000a81548160ff0219169083151502179055508073ffffffffffffffffffffffffffffffffffffffff167faf4c2a533fbd4d43945279bdd38298da41e7b2785811f3fe4f5233a3bd4aea0b60405160405180910390a250565b60008054906101000a900473ffffffffffffffffffffffffffffffffffffffff1681565b60006060600080600354116118a0576040517f08c379a000000000000000000000000000000000000000000000000000000000815260040161189790612e3e565b60405180910390fd5b6000806000600190505b600354811161192d576001600082815260200190815260200160002060040160009054906101000a900460ff1680156118f85750826001600083815260200190815260200160002060030154115b1561191a57600160008281526020019081526020016000206003015492508091505b808061192590612805565b9150506118aa565b5060008111611971576040517f08c379a000000000000000000000000000000000000000000000000000000000815260040161196890612eaa565b60405180910390fd5b8060016000838152602001908152602001600020600101838180546119959061297a565b80601f01602080910402602001604051908101604052809291908181526020018280546119c19061297a565b8015611a0e5780601f106119e357610100808354040283529160200191611a0e565b820191906000526020600020905b8154815290600101906020018083116119f157829003601f168201915b505050505091509450945094505050909192565b60026020528060005260406000206000915090508060000160009054906101000a900460ff16908060000160019054906101000a900460ff16908060010154908060020160009054906101000a900460ff16905084565b60008054906101000a900473ffffffffffffffffffffffffffffffffffffffff1673ffffffffffffffffffffffffffffffffffffffff163373ffffffffffffffffffffffffffffffffffffffff1614611b07576040517f08c379a0000000000000000000000000000000000000000000000000000000008152600401611afe906128bf565b60405180910390fd5b600083118015611b1957506003548311155b611b58576040517f08c379a0000000000000000000000000000000000000000000000000000000008152600401611b4f9061274a565b60405180910390fd5b6001600084815260200190815260200160002060040160009054906101000a900460ff16611bbb576040517f08c379a0000000000000000000000000000000000000000000000000000000008152600401611bb290612f16565b60405180910390fd5b81600160008581526020019081526020016000206001019081611bde9190612b57565b5080600160008581526020019081526020016000206002019081611c029190612b57565b50827f5665515fd2ae27c198f44dc3736bc1956d057b3eb330d002d5441082f9e38ece83604051611c339190612c29565b60405180910390a2505050565b6000806000806000600260008773ffffffffffffffffffffffffffffffffffffffff1673ffffffffffffffffffffffffffffffffffffffff1681526020019081526020016000206040518060800160405290816000820160009054906101000a900460ff161515151581526020016000820160019054906101000a900460ff16151515158152602001600182015481526020016002820160009054906101000a900460ff161515151581525050905080600001518160200151826040015183606001519450945094509450509193509193565b60008054906101000a900473ffffffffffffffffffffffffffffffffffffffff1673ffffffffffffffffffffffffffffffffffffffff163373ffffffffffffffffffffffffffffffffffffffff1614611da1576040517f08c379a0000000000000000000000000000000000000000000000000000000008152600401611d98906128bf565b60405180910390fd5b6000600560006101000a81548160ff0219169083151502179055507f9069a1a16ace751e8690f383e12f87b01e8488ba387e626810bd113fef0417f96000604051611dec91906123d5565b60405180910390a1565b6040518060a00160405280600081526020016060815260200160608152602001600081526020016000151581525090565b6000604051905090565b600080fd5b600080fd5b6000819050919050565b611e4e81611e3b565b8114611e5957600080fd5b50565b600081359050611e6b81611e45565b92915050565b600060208284031215611e8757611e86611e31565b5b6000611e9584828501611e5c565b91505092915050565b611ea781611e3b565b82525050565b6000602082019050611ec26000830184611e9e565b92915050565b600080fd5b600080fd5b6000601f19601f8301169050919050565b7f4e487b7100000000000000000000000000000000000000000000000000000000600052604160045260246000fd5b611f1b82611ed2565b810181811067ffffffffffffffff82111715611f3a57611f39611ee3565b5b80604052505050565b6000611f4d611e27565b9050611f598282611f12565b919050565b600067ffffffffffffffff821115611f7957611f78611ee3565b5b611f8282611ed2565b9050602081019050919050565b82818337600083830152505050565b6000611fb1611fac84611f5e565b611f43565b905082815260208101848484011115611fcd57611fcc611ecd565b5b611fd8848285611f8f565b509392505050565b600082601f830112611ff557611ff4611ec8565b5b8135612005848260208601611f9e565b91505092915050565b6000806040838503121561202557612024611e31565b5b600083013567ffffffffffffffff81111561204357612042611e36565b5b61204f85828601611fe0565b925050602083013567ffffffffffffffff8111156120705761206f611e36565b5b61207c85828601611fe0565b9150509250929050565b600081519050919050565b600082825260208201905092915050565b6000819050602082019050919050565b6120bb81611e3b565b82525050565b600081519050919050565b600082825260208201905092915050565b60005b838110156120fb5780820151818401526020810190506120e0565b60008484015250505050565b6000612112826120c1565b61211c81856120cc565b935061212c8185602086016120dd565b61213581611ed2565b840191505092915050565b60008115159050919050565b61215581612140565b82525050565b600060a08301600083015161217360008601826120b2565b506020830151848203602086015261218b8282612107565b915050604083015184820360408601526121a58282612107565b91505060608301516121ba60608601826120b2565b5060808301516121cd608086018261214c565b508091505092915050565b60006121e4838361215b565b905092915050565b6000602082019050919050565b600061220482612086565b61220e8185612091565b935083602082028501612220856120a2565b8060005b8581101561225c578484038952815161223d85826121d8565b9450612248836121ec565b925060208a01995050600181019050612224565b50829750879550505050505092915050565b6000602082019050818103600083015261228881846121f9565b905092915050565b600082825260208201905092915050565b60006122ac826120c1565b6122b68185612290565b93506122c68185602086016120dd565b6122cf81611ed2565b840191505092915050565b6122e381612140565b82525050565b600060a0820190506122fe6000830188611e9e565b818103602083015261231081876122a1565b9050818103604083015261232481866122a1565b90506123336060830185611e9e565b61234060808301846122da565b9695505050505050565b600073ffffffffffffffffffffffffffffffffffffffff82169050919050565b60006123758261234a565b9050919050565b6123858161236a565b811461239057600080fd5b50565b6000813590506123a28161237c565b92915050565b6000602082840312156123be576123bd611e31565b5b60006123cc84828501612393565b91505092915050565b60006020820190506123ea60008301846122da565b92915050565b6123f98161236a565b82525050565b600060208201905061241460008301846123f0565b92915050565b600060608201905061242f6000830186611e9e565b818103602083015261244181856122a1565b90506124506040830184611e9e565b949350505050565b600060808201905061246d60008301876122da565b61247a60208301866122da565b6124876040830185611e9e565b61249460608301846122da565b95945050505050565b6000806000606084860312156124b6576124b5611e31565b5b60006124c486828701611e5c565b935050602084013567ffffffffffffffff8111156124e5576124e4611e36565b5b6124f186828701611fe0565b925050604084013567ffffffffffffffff81111561251257612511611e36565b5b61251e86828701611fe0565b9150509250925092565b7f566f74696e67206973206e6f7420616374697665000000000000000000000000600082015250565b600061255e601483612290565b915061256982612528565b602082019050919050565b6000602082019050818103600083015261258d81612551565b9050919050565b7f596f7520617265206e6f74207265676973746572656420746f20766f74650000600082015250565b60006125ca601e83612290565b91506125d582612594565b602082019050919050565b600060208201905081810360008301526125f9816125bd565b9050919050565b7f596f757220766f74657220726567697374726174696f6e20697320696e61637460008201527f6976650000000000000000000000000000000000000000000000000000000000602082015250565b600061265c602383612290565b915061266782612600565b604082019050919050565b6000602082019050818103600083015261268b8161264f565b9050919050565b7f596f75206861766520616c726561647920766f74656400000000000000000000600082015250565b60006126c8601683612290565b91506126d382612692565b602082019050919050565b600060208201905081810360008301526126f7816126bb565b9050919050565b7f496e76616c69642063616e646964617465204944000000000000000000000000600082015250565b6000612734601483612290565b915061273f826126fe565b602082019050919050565b6000602082019050818103600083015261276381612727565b9050919050565b7f43616e646964617465206973206e6f7420616374697665000000000000000000600082015250565b60006127a0601783612290565b91506127ab8261276a565b602082019050919050565b600060208201905081810360008301526127cf81612793565b9050919050565b7f4e487b7100000000000000000000000000000000000000000000000000000000600052601160045260246000fd5b600061281082611e3b565b91507fffffffffffffffffffffffffffffffffffffffffffffffffffffffffffffffff8203612842576128416127d6565b5b600182019050919050565b7f4f6e6c79206f776e65722063616e20706572666f726d2074686973206163746960008201527f6f6e000000000000000000000000000000000000000000000000000000000000602082015250565b60006128a9602283612290565b91506128b48261284d565b604082019050919050565b600060208201905081810360008301526128d88161289c565b9050919050565b7f43616e64696461746520616c72656164792064656c6574656400000000000000600082015250565b6000612915601983612290565b9150612920826128df565b602082019050919050565b6000602082019050818103600083015261294481612908565b9050919050565b7f4e487b7100000000000000000000000000000000000000000000000000000000600052602260045260246000fd5b6000600282049050600182168061299257607f821691505b6020821081036129a5576129a461294b565b5b50919050565b60008190508160005260206000209050919050565b60006020601f8301049050919050565b600082821b905092915050565b600060088302612a0d7fffffffffffffffffffffffffffffffffffffffffffffffffffffffffffffffff826129d0565b612a1786836129d0565b95508019841693508086168417925050509392505050565b6000819050919050565b6000612a54612a4f612a4a84611e3b565b612a2f565b611e3b565b9050919050565b6000819050919050565b612a6e83612a39565b612a82612a7a82612a5b565b8484546129dd565b825550505050565b600090565b612a97612a8a565b612aa2818484612a65565b505050565b5b81811015612ac657612abb600082612a8f565b600181019050612aa8565b5050565b601f821115612b0b57612adc816129ab565b612ae5846129c0565b81016020851015612af4578190505b612b08612b00856129c0565b830182612aa7565b50505b505050565b600082821c905092915050565b6000612b2e60001984600802612b10565b1980831691505092915050565b6000612b478383612b1d565b9150826002028217905092915050565b612b60826120c1565b67ffffffffffffffff811115612b7957612b78611ee3565b5b612b83825461297a565b612b8e828285612aca565b600060209050601f831160018114612bc15760008415612baf578287015190505b612bb98582612b3b565b865550612c21565b601f198416612bcf866129ab565b60005b82811015612bf757848901518255600182019150602085019450602081019050612bd2565b86831015612c145784890151612c10601f891682612b1d565b8355505b6001600288020188555050505b505050505050565b60006020820190508181036000830152612c4381846122a1565b905092915050565b7f4e487b7100000000000000000000000000000000000000000000000000000000600052603260045260246000fd5b6000612c8582611e3b565b9150612c9083611e3b565b9250828203905081811115612ca857612ca76127d6565b5b92915050565b7f566f74657220616c726561647920726567697374657265640000000000000000600082015250565b6000612ce4601883612290565b9150612cef82612cae565b602082019050919050565b60006020820190508181036000830152612d1381612cd7565b9050919050565b7f566f746572206e6f742072656769737465726564000000000000000000000000600082015250565b6000612d50601483612290565b9150612d5b82612d1a565b602082019050919050565b60006020820190508181036000830152612d7f81612d43565b9050919050565b7f566f74657220616c72656164792064656c657465640000000000000000000000600082015250565b6000612dbc601583612290565b9150612dc782612d86565b602082019050919050565b60006020820190508181036000830152612deb81612daf565b9050919050565b7f4e6f2063616e6469646174657320617661696c61626c65000000000000000000600082015250565b6000612e28601783612290565b9150612e3382612df2565b602082019050919050565b60006020820190508181036000830152612e5781612e1b565b9050919050565b7f4e6f2077696e6e657220666f756e640000000000000000000000000000000000600082015250565b6000612e94600f83612290565b9150612e9f82612e5e565b602082019050919050565b60006020820190508181036000830152612ec381612e87565b9050919050565b7f43616e6469646174652069732064656c65746564000000000000000000000000600082015250565b6000612f00601483612290565b9150612f0b82612eca565b602082019050919050565b60006020820190508181036000830152612f2f81612ef3565b905091905056fea26469706673582212200c21c5a53e746e7acb51f83c62f0b5e593730311aff8709f09e83b46a79ccb4a64736f6c634300081b0033",
  "linkReferences": {},
  "deployedLinkReferences": {}
}